S010000041756667616265352E7372656334
S113000073C0000001C10000FFC00000FDC000007B
S1130010FBC00000F9C00000F7C00000F5C00000FC
S1130020F3C00000FCC300002DC400005EC4000047
S1130030EBC000000C94B80A0C94EB0AE5C0000075
S1130040E3C000000C941E0B0C94510B0C94840B15
S11300500C94B70B0C94520A0C94850A0C949208D5
S1130060D3C00000D1C00000CFC00000CDC000004C
S1130070CBC00000C9C00000C7C00000C5C000005C
S11300800C94EA0B0C941D0C0C94500C0C94830CE3
S1130090BBC00000B9C00000B7C00000B5C000007C
S11300A0B3C00000B1C000000C94B60C0C94E90C71
S11300B00C941C0D0C944F0DA7C000000C94820DE1
S11300C00C94B50D0C94E80D0C941B0E9DC000000F
S11300D09BC0000099C0000097C0000095C00000BC
S11300E093C000004A03930914BE0FB6F894A89570
S11300F080916000886180936000109260000FBE60
S113010014BE0FB6F894A89580916000886180931E
S11301106000109260000FBE14BE0FB6F894A8954C
S113012080916000886180936000109260000FBE2F
S113013014BE0FB6F894A8958091600088618093EE
S11301406000109260000FBE14BE0FB6F894A8951C
S113015080916000886180936000109260000FBEFF
S113016014BE0FB6F894A8958091600088618093BE
S11301706000109260000FBE14BE0FB6F894A895EC
S113018080916000886180936000109260000FBECF
S113019014BE0FB6F894A89580916000886180938E
S11301A06000109260000FBE11241FBECFEFD1E299
S11301B0DEBFCDBF00E00CBF12E0A0E0B2E0E4E29D
S11301C0F3E200E00BBF02C007900D92AA3CB10716
S11301D0D9F72CE1AAECB2E001C01D92AF3BB20703
S11301E0E1F710E0C4E7D0E000E006C02197010980
S11301F0802FFE010E948811C237D10780E00807D2
S1130200A9F7FCD00C949011FBCE209139033091C6
S11302103A0380913503909136032817390748F43F
S11302208091390390913A03019690933A03809315
S113023039032091390330913A0380913503909129
S113024036032817390778F0ACE0B3E0ED91FC9160
S11302501197928112968C918F70892782831092C4
S11302603A031092390308952091370330913803EB
S113027080913303909134032817390748F480910F
S11302803703909138030196909338038093370392
S113029020913703309138038091330390913403D4
S11302A02817390778F0ACE0B3E0ED91FC91119791
S11302B0928112968C91807F8927828310923803D1
S11302C01092370308958091D902882319F188ED9B
S11302D092E019D2C82F813329F410922803109286
S11302E0270307C0823329F481E080932803109206
S11302F0270340912703609128038BE193E05AD4AC
S11303006C2F8BE193E06DD5809127038F5F8093F1
S11303102703D9CF5DD6D7CF8091CB02882321F193
S11303208AEC92E0F0D1C82F833331F482E08093D9
S113033026031092250307C0843329F483E08093B5
S113034026031092250340912503609126038BE137
S113035093E030D46C2F8BE193E043D58091250357
S11303608F5F80932503D8CF33D6D6CFEF92FF92F9
S11303700F931F93019709F03CC06F3F7F4FC9F55E
S11303802FE849E062E08BE193E0F8D400E010E06C
S113039020E040E069E080E193E0DAD220E04FEF32
S11303A060E08CE093E019D2E12CF12C20E030E005
S11303B045E051E061E08AEF92E00E944E0E20E0B9
S11303C030E044E351E063E088EE92E00E944E0E98
S11303D01092E7021092E602E8EDF2E01382128234
S11303E0118281E08083EAECF2E0138212821182AE
S11303F080831F910F91FF90EF90089560E08FE844
S113040092E02CD5CDE2D3E0888362E086EA92E0E4
S113041025D5898364E08DEB92E020D58A8364E05E
S113042084ED92E01BD58B8360E083E691E016D5E2
S11304308C8360E08CE891E011D58D8360E08BEED5
S113044092E00CD5EE24EA9400E010E020E030E0E5
S113045040E050E064E670E08AEF92E00E942B0FE7
S113046020E030E040E050E068EC70E088EE92E09C
S11304700E942B0F60E070E080E094D5EF92FF9231
S11304800F931F93CF938C017B01C0E08C2F90E0DE
S1130490F80101900020E9F73197E01BF10B8E176A
S11304A09F0738F4F801E80FF91F6081C70143D1B1
S11304B001C080E0882319F0CF5F8AD5E7CFCF91C0
S11304C01F910F91FF90EF900895CF93DF93C82F62
S11304D0D0E0FE01E35DFC4F80814FD5811105C062
S11304E0C35DDC4F888125D517C0FE01E75DFC4F55
S11304F08081813049F4FE01E35DFC4F808194D515
S1130500C75DDC4F188208C0FE01E75DFC4F8081A7
S1130510811102C081E08083DF91CF91089587EE3D
S113052092E0BED061E388ED92E005D168ED72E01F
S11305308BE192E0A3DF87EE92E0CED08091290395
S1130540882311F080E0C1DF43D5E9CF87EE92E044
S1130550A7D062E388ED92E0EED068ED72E082E12C
S113056092E08CDF87EE92E0B7D080912A03882353
S113057011F081E0AADF2CD5E9CF86EE92E090D08D
S113058063E38AEC92E0D7D06AEC72E089E092E00F
S113059075DF86EE92E0A0D080912B03882311F0C2
S11305A082E093DF15D5E9CF86EE92E079D064E35B
S11305B08AEC92E0C0D06AEC72E080E092E05EDF08
S11305C086EE92E089D080912C03882311F083E099
S11305D07CDFFED4E9CF809119038823E1F3E0E1C5
S11305E0F3E0918511868830E9F040F48230A1F07F
S11305F08430A9F0813009F04BC00BC08032F9F08F
S113060018F4803191F044C0803449F1803889F184
S11306103FC080E05ADF3CC081E057DF39C082E050
S113062054DF36C083E051DF33C0809135039091AD
S113063036030296909336038093350329C0809144
S1130640350390913603892B19F1809135039091EC
S113065036030297909336038093350319C0809133
S113066033039091340302969093340380933303BD
S11306700FC08091330390913403892B49F080910A
S1130680330390913403029790933403809333039C
S11306909FD4A1CF6FEF7FEF81E090E067CE089504
S11306A01F93CF93DF93EC011881E6D4181781F0E0
S11306B08881882321F0E0D4E2D48AD4F5CF1FB70F
S11306C0F8948881811102C0D7D488831FBFECCFEE
S11306D0DF91CF911F9108950F931F93CF93DF93D1
S11306E0EC011FB7F8940881C7D4081303C018821B
S11306F0C1E001C0C0E01FBF6BD48C2FDF91CF914C
S11307001F910F910895FC013FB7F89491819111C5
S113071002C080E00EC0838121E0280F2383DF0123
S1130720A80FB11D14968C91915091832A3008F032
S113073013823FBF0895FC012FB7F89491819A303A
S1130740A0F08081813071F083818F5F8A3010F452
S113075083830BC013828FEF890F818306C01282BB
S113076081E001C080E02FBF0895828191E0980F5D
S11307709283DF01A80FB11D14966C9381818F5F62
S113078081839A3060F781E0EECFFC012FB7F894B3
S11307908481982F909585818F3F21F4A281B38124
S11307A08C9104C0A281B3818C91809589232FBF41
S11307B092852085382F30959323922B90879285AC
S11307C0218590959823922B918782870680F781C3
S11307D0E02D309709F0199508950F931F93CF9347
S11307E0DF938C01862FC42FD22F0E943F11D80192
S11307F011969C938E93009769F01396DC9313974C
S11308001296CC931297FC01C183ED91FC91CD2BF0
S1130810C095C283DF91CF911F910F9108951F92CC
S11308200F920FB60F9211240BB60F922F933F9392
S11308304F935F936F937F938F939F93AF93BF93E4
S1130840EF93FF9380913B0390913C03009739F021
S1130850DC01ED91FC910190F081E02D1995FF915F
S1130860EF91BF91AF919F918F917F916F915F9124
S11308704F913F912F910F900BBE0F900FBE0F9091
S11308801F9018951F920F920FB60F9211240BB65A
S11308900F922F933F934F935F936F937F938F9315
S11308A09F93AF93BF93EF93FF9380913F039091F6
S11308B04003009739F0DC01ED91FC910190F08147
S11308C0E02D1995FF91EF91BF91AF919F918F9179
S11308D07F916F915F914F913F912F910F900BBE3C
S11308E00F900FBE0F901F9018951F920F920FB686
S11308F00F9211240BB60F922F933F934F935F9354
S11309006F937F938F939F93AF93BF93EF93FF93D3
S113091080913D0390913E03009739F0DC01ED9105
S1130920FC910190F081E02D1995FF91EF91BF9119
S1130930AF919F918F917F916F915F914F913F9173
S11309402F910F900BBE0F900FBE0F901F90189514
S1130950FF920F931F93CF93DF93EC01F62E029631
S11309603CDF81E392E0998388831F830E8318869A
S113097019861A8681E0F8120EC0D0933C03C09306
S11309803B03E8E6F0E08081816080838C81809580
S113099080936B0022C089E0F8120EC0D0933E030E
S11309A0C0933D03E8E6F0E08081846080838C811D
S11309B0809580936D0011C088E0F8120EC0D0932A
S11309C04003C0933F03E8E6F0E0808182608083C7
S11309D08C818095880F80936C00DF91CF911F915B
S11309E00F91FF900895CF93DF93FC016FB7F894B4
S11309F0A281B3811C92A281B381119780EF8C9361
S1130A00A281B3818C9180628C9381E090E0A28179
S1130A10B3814C919C01018402C0220F331F0A94BC
S1130A20E2F724272C9325E02A95F1F70000A28110
S1130A30B381ED01229728812295207F3C91AC015E
S1130A40018402C0440F551F0A94E2F743274C93D4
S1130A503AE03A95F1F700C0A281B3813C91AC0130
S1130A60018402C0440F551F0A94E2F743274C93B4
S1130A7035E03A95F1F70000A281B381ED012297A8
S1130A8038813C91AC01018402C0440F551F0A9483
S1130A90E2F743274C9322230CF4B9CFA281B3810C
S1130AA08C918F7D8C930280F381E02D31978FEFB1
S1130AB080836FBFDF91CF910895FC014FB7F89405
S1130AC0A281B3815C9121E030E0C901018402C0BC
S1130AD0880F991F0A94E2F785278C9385E08A95FD
S1130AE0F1F70000A281B3818C91018402C0220F2E
S1130AF0331F0A94E2F728272C934FBF0895EF92EF
S1130B00FF920F931F93CF93DF93EC01062F8C81F9
S1130B10893011F0CE0167DF1FB7F894E02EF12C75
S1130B20F594E794F594E794F594E794F594E794B1
S1130B30EA81FB81E082CE01C0DF0F70EA81FB8194
S1130B400083CE01BADFEA81FB8110828C81893077
S1130B5031F587EC90E00197F1F700C000001FC069
S1130B601985143011F084E001C087E08987FFB64D
S1130B70F894EA81FB81E082CE019FDFEA81FB8168
S1130B800083CE019ADFEA81FB811082198787EC0A
S1130B9090E00197F1F700C00000FFBE04C01FBF42
S1130BA08C818930E9F2DF91CF911F910F91FF90F1
S1130BB0EF900895CF93DF93FC01A581B6818C91CA
S1130BC06817F0F411968C9111974817D8F4408760
S1130BD06783ED01C60FD11D8A81480F8481893056
S1130BE039F48C918695681718F087E0818702C0E4
S1130BF084E08187CF01642F606881DF81E003C0D6
S1130C0080E001C080E0DF91CF910895FC019085E0
S1130C1081E0890F8087A581B68111962C91119767
S1130C20821788F08181882349F0108687818F5F3D
S1130C3087839C91891718F0178201C0908740859B
S1130C406781CF01B7CF08951F93CF93DF93EC0152
S1130C50162F2FEF81EE94E0215080409040E1F771
S1130C6000C00000EA81FB8183E08083CE0125DFA0
S1130C708FE19EE40197F1F700C00000CE011DDF73
S1130C808FE19EE40197F1F700C00000CE0115DF6B
S1130C908FE19EE40197F1F700C00000EA81FB8137
S1130CA082E08083CE0109DF8FE19EE40197F1F7B2
S1130CB000C00000612FCE0122DFED81FE81808122
S1130CC0813021F460E2CE011ADF03C068E2CE0174
S1130CD016DF61E0CE0113DF8C81893031F48FE1BE
S1130CE09EE40197F1F700C0000066E0CE0107DF43
S1130CF08C81893009F03EC087E08987EA81FB81D5
S1130D0083E08083CE01D9DE8FE19EE40197F1F781
S1130D1000C00000CE01D1DE8FE19EE40197F1F71F
S1130D2000C00000CE01C9DE8FE19EE40197F1F717
S1130D3000C00000EA81FB8182E08083CE01BDDE39
S1130D408FE19EE40197F1F700C00000612FCE010E
S1130D50D6DE68E2CE01D3DE61E0CE01D0DE8FE1E3
S1130D609EE40197F1F700C0000066E0CE01C7DE03
S1130D7084E08987DF91CF911F9108950F931F938A
S1130D80CF93DF93EC01862F042F122F0E943F1183
S1130D909C012E5F3F4F3B832A8324E029870C83E9
S1130DA0402F50E09A01220F331F420F531F440F6C
S1130DB0551F4D5C5D4F5E834D8318861F82212F26
S1130DC0221F2227221F29832FEFFC012183612F59
S1130DD06F776883CE0138DFDF91CF911F910F9138
S1130DE008950F931F93CF93DF93EC01162F8C81FB
S1130DF0893011F0CE01F7DD0FB7F894812F829579
S1130E008F708064EA81FB818083CE0156DE1F707F
S1130E101064EA81FB811083CE014FDEEA81FB81FD
S1130E2010828C81893031F487EC90E00197F1F7DE
S1130E3000C000000FBFCE01E9DEDF91CF911F910A
S1130E400F910895789483B7817F83BF83B78160BE
S1130E5083BF889583B78E7F83BFF4CF782F80912B
S1130E602C028F3F39F5E3E8F6E020EB3CE1808388
S1130E70E55DFC4F2E173F07D1F74FB7F894E8E52F
S1130E80F3E0108284E082838383148215821682C5
S1130E90178281E0818322E237E020938206309337
S1130EA08106109280062FE536E032872187109262
S1130EB02C024FBF5FB7F894209183062F3F51F067
S1130EC0EEEAF9E022E030E0822FD90140814F3F81
S1130ED031F503C0A1E0B0E081E0EBE2F3E0AE9FC6
S1130EE09001AF9F300DBE9F300D1124F901E85AD7
S1130EF0FC4F808362836383148215821682178277
S1130F0041E04183DF01A65DBC4F7C9311979C9324
S1130F1011971C92215A394F3287218708C02F5FBD
S1130F203F4FE55DFC4F2830310571F68FEF5FBF11
S1130F3008959FEF980F9730F8F44FB7F89490E026
S1130F402BE233E0829FF001839FF00D929FF00D1E
S1130F501124E85AFC4F20812F3F69F02BE233E043
S1130F60829FF001839FF00D929FF00D1124E85AA7
S1130F70FC4F81E081834FBF08959FEF980F973016
S1130F8078F42BE233E0829FF001839FF00D11246B
S1130F90E85AFC4F81E09181923019F480E0089581
S1130FA080E008958093460370934503609344035F
S1130FB06FE070E087E493E00E94A31010922C028B
S1130FC010925903789487E493E00E947710FFCF3E
S1130FD080914603813061F4789483B7817F83BF25
S1130FE083B7816083BF889583B78E7F83BF08955D
S1130FF087E493E00E94771090912C022BE233E077
S1131000929FF001939FF00D1124E85AFC4F448104
S1131010558166817781480F511D611D711D44837F
S113102055836683778308959FEF980F9730F0F484
S11310306FB7F894282F30E04BE253E0249FF0017F
S1131040259FF00D349FF00D1124E85AFC4F908138
S11310509F3F59F0249FF001259FF00D349FF00D20
S11310601124E85AFC4F92E091836FBF90912C02B7
S1131070891301C0ADCF089580912C020895209169
S11310804303283099F1222329F0909124028913F3
S11310900BC00895809324021092410381E0809351
S11310A04203809343030895E5E2F2E04CE252E008
S11310B091918917D9F0E417F507D1F7E09142032C
S11310C0E83048F08093240281E0809342032F5F4C
S11310D020934303089591E09E0F90934203F0E020
S11310E0EC5DFD4F80832F5F20934303089590911F
S11310F043039923A9F020914103E22FF0E0EC5D32
S1131100FD4F80813FEF30839150909343032F5FD5
S1131110283018F420934103089510924103089550
S11311208FEF0895FF93EF93DF93CF93BF93AF9324
S11311309F938F937F936F935F934F933F932F93DB
S11311401F930F93FF92EF92DF92CF92BF92AF92D1
S11311509F928F927F926F925F924F923F922F92C3
S11311601F920F92C0912C022C2F30E08FB74BE2CC
S113117053E0249FF001259FF00D349FF00D1124BE
S1131180E85AFC4F80878DB79EB792878187848108
S11311909581A681B7818F519F4FAF4FBF4F8483F5
S11311A09583A683B783818181110DC08BE293E07F
S11311B0289FF001299FF00D389FF00D1124E85A63
S11311C0FC4F81E0818393DF8F3F19F080932C02E1
S11311D041C08C2F4BE253E08F5F883008F081E0F0
S11311E0282F30E0249FF001259FF00D349FF00D4F
S11311F01124E85AFC4F9181913041F5249FF0016C
S1131200259FF00D349FF00D1124E85AFC4F938173
S1131210992361F0249FF001259FF00D349FF00D78
S11312201124E85AFC4F91509383D6CF4BE253E0FC
S1131230249FF001259FF00D349FF00D1124E85AEE
S1131240FC4F9281938380932C0204C08C13C4CFEF
S113125010922C0220912C028BE293E0289FF00143
S1131260299FF00D1124E85AFC4F11829FB7F8947E
S11312704091490350914A032091A7023091A8025A
S11312804217530751F4E7E4F3E0A481B5818C914C
S113129085608C93808986BD0AC0E7E4F3E0A4816D
S11312A0B5818C9187608C9380898093B2009FBFB5
S11312B020912C028BE293E0289FF001299FF00DEE
S11312C01124E85AFC4F20852FBF20912C02289F1F
S11312D0F001299FF00D1124E85AFC4F8185928575
S11312E09EBF8DBF0F901F902F903F904F905F90A7
S11312F06F907F908F909F90AF90BF90CF90DF9032
S1131300EF90FF900F911F912F913F914F915F911B
S11313106F917F918F919F91AF91BF91CF91DF9109
S1131320EF91FF91189560E087E493E0BCC60895BF
S1131330CF93DF93EC01E885F985309709F019958F
S11313408A859B85892B39F4E881F9810190F081A4
S1131350E02DCE011995DF91CF910895CF93DF93BE
S1131360EC01EA85FB85309709F019958E859F85F8
S1131370892B39F4E881F9810190F081E02DCE01C7
S11313801995DF91CF9108950895CF93DF93EC01E0
S1131390EE85FF85309709F01995E881F981019070
S11313A0F081E02DCE011995DF91CF910895DC01F4
S11313B02FB7F89412964D915C9113978091A702E0
S11313C09091A8024817590759F41496ED91FC918D
S11313D0159780818560808350968C9186BD0BC063
S11313E01496ED91FC911597908197609083509697
S11313F08C918093B2002FBF0895CF93DF93EC01BB
S1131400E885F985309709F019958A859B85892B9C
S113141039F4E881F9810190F081E02DCE0119952C
S1131420DF91CF910895CF93DF93EC01EA85FB859B
S1131430309709F019958C859D85892B39F4E881BD
S1131440F9810190F081E02DCE011995DF91CF91C2
S11314500895CF93DF93EC01EC85FD85309709F077
S113146019958E859F85892B39F4E881F98101903E
S1131470F081E02DCE011995DF91CF910895CF939E
S1131480DF93EC01EE85FF85309709F01995E8812B
S1131490F9810190F081E02DCE011995DF91CF9172
S11314A00895FFCF1F920F920FB60F9211240BB61F
S11314B00F922F933F934F935F936F937F938F93E9
S11314C09F93AF93BF93EF93FF938091B01C909140
S11314D0B11C009739F0DC01ED91FC910280F3819D
S11314E0E02D1995FF91EF91BF91AF919F918F914D
S11314F07F916F915F914F913F912F910F900BBE10
S11315000F900FBE0F901F9018951F920F920FB659
S11315100F9211240BB60F922F933F934F935F9327
S11315206F937F938F939F93AF93BF93EF93FF93A7
S11315308091B01C9091B11C009739F0DC01ED91C1
S1131540FC910480F581E02D1995FF91EF91BF91F5
S1131550AF919F918F917F916F915F914F913F9147
S11315602F910F900BBE0F900FBE0F901F901895E8
S11315701F920F920FB60F9211240BB60F922F9356
S11315803F934F935F936F937F938F939F93AF9307
S1131590BF93EF93FF938091B41C9091B51C009777
S11315A039F0DC01ED91FC910280F381E02D199575
S11315B0FF91EF91BF91AF919F918F917F916F9127
S11315C05F914F913F912F910F900BBE0F900FBEE3
S11315D00F901F9018951F920F920FB60F9211241F
S11315E00BB60F922F933F934F935F936F937F9319
S11315F08F939F93AF93BF93EF93FF938091B41C0A
S11316009091B51C009739F0DC01ED91FC910480B8
S1131610F581E02D1995FF91EF91BF91AF919F91C5
S11316208F917F916F915F914F913F912F910F9087
S11316300BBE0F900FBE0F901F9018951F920F9224
S11316400FB60F9211240BB60F922F933F934F9323
S11316505F936F937F938F939F93AF93BF93EF9316
S1131660FF938091B21C9091B31C009739F0DC0178
S1131670ED91FC910280F381E02D1995FF91EF919A
S1131680BF91AF919F918F917F916F915F914F9196
S11316903F912F910F900BBE0F900FBE0F901F9094
S11316A018951F920F920FB60F9211240BB60F923A
S11316B02F933F934F935F936F937F938F939F9356
S11316C0AF93BF93EF93FF938091B21C9091B31C9F
S11316D0009739F0DC01ED91FC910480F581E02D57
S11316E01995FF91EF91BF91AF919F918F917F9148
S11316F06F915F914F913F912F910F900BBE0F907F
S11317000FBE0F901F9018951F920F920FB60F9255
S113171011240BB60F922F933F934F935F936F93C4
S11317207F938F939F93AF93BF93EF93FF93809196
S1131730B21C9091B31C009739F0DC01ED91FC913F
S11317400680F781E02D1995FF91EF91BF91AF913C
S11317509F918F917F916F915F914F913F912F91C5
S11317600F900BBE0F900FBE0F901F9018951F92F5
S11317700F920FB60F9211240BB60F922F933F9333
S11317804F935F936F937F938F939F93AF93BF9385
S1131790EF93FF938091B21C9091B31C009739F0A2
S11317A0DC01ED91FC910084F185E02D1995FF9108
S11317B0EF91BF91AF919F918F917F916F915F91C5
S11317C04F913F912F910F900BBE0F900FBE0F9032
S11317D01F9018951F920F920FB60F9211240BB6FB
S11317E00F922F933F934F935F936F937F938F93B6
S11317F09F93AF93BF93EF93FF938091B61C909107
S1131800B71C009739F0DC01ED91FC910280F38163
S1131810E02D1995FF91EF91BF91AF919F918F9119
S11318207F916F915F914F913F912F910F900BBEDC
S11318300F900FBE0F901F9018951F920F920FB626
S11318400F9211240BB60F922F933F934F935F93F4
S11318506F937F938F939F93AF93BF93EF93FF9374
S11318608091B61C9091B71C009739F0DC01ED9182
S1131870FC910480F581E02D1995FF91EF91BF91C2
S1131880AF919F918F917F916F915F914F913F9114
S11318902F910F900BBE0F900FBE0F901F901895B5
S11318A01F920F920FB60F9211240BB60F922F9323
S11318B03F934F935F936F937F938F939F93AF93D4
S11318C0BF93EF93FF938091B61C9091B71C009740
S11318D039F0DC01ED91FC910680F781E02D19953A
S11318E0FF91EF91BF91AF919F918F917F916F91F4
S11318F05F914F913F912F910F900BBE0F900FBEB0
S11319000F901F9018951F920F920FB60F921124EB
S11319100BB60F922F933F934F935F936F937F93E5
S11319208F939F93AF93BF93EF93FF938091B61CD4
S11319309091B71C009739F0DC01ED91FC91008483
S1131940F185E02D1995FF91EF91BF91AF919F9192
S11319508F917F916F915F914F913F912F910F9054
S11319600BBE0F900FBE0F901F9018951F920F92F1
S11319700FB60F9211240BB60F922F933F934F93F0
S11319805F936F937F938F939F93AF93BF93EF93E3
S1131990FF938091B81C9091B91C009739F0DC0139
S11319A0ED91FC910280F381E02D1995FF91EF9167
S11319B0BF91AF919F918F917F916F915F914F9163
S11319C03F912F910F900BBE0F900FBE0F901F9061
S11319D018951F920F920FB60F9211240BB60F9207
S11319E02F933F934F935F936F937F938F939F9323
S11319F0AF93BF93EF93FF938091B81C9091B91C60
S1131A00009739F0DC01ED91FC910480F581E02D23
S1131A101995FF91EF91BF91AF919F918F917F9114
S1131A206F915F914F913F912F910F900BBE0F904B
S1131A300FBE0F901F9018951F920F920FB60F9222
S1131A4011240BB60F922F933F934F935F936F9391
S1131A507F938F939F93AF93BF93EF93FF93809163
S1131A60B81C9091B91C009739F0DC01ED91FC9100
S1131A700680F781E02D1995FF91EF91BF91AF9109
S1131A809F918F917F916F915F914F913F912F9192
S1131A900F900BBE0F900FBE0F901F9018951F92C2
S1131AA00F920FB60F9211240BB60F922F933F9300
S1131AB04F935F936F937F938F939F93AF93BF9352
S1131AC0EF93FF938091B81C9091B91C009739F063
S1131AD0DC01ED91FC910084F185E02D1995FF91D5
S1131AE0EF91BF91AF919F918F917F916F915F9192
S1131AF04F913F912F910F900BBE0F900FBE0F90FF
S1131B001F9018951F920F920FB60F9211240BB6C7
S1131B100F922F933F934F935F936F937F938F9382
S1131B209F93AF93BF93EF93FF938091BA1C9091CF
S1131B30BB1C009739F0DC01ED91FC910280F3812C
S1131B40E02D1995FF91EF91BF91AF919F918F91E6
S1131B507F916F915F914F913F912F910F900BBEA9
S1131B600F900FBE0F901F9018951F920F920FB6F3
S1131B700F9211240BB60F922F933F934F935F93C1
S1131B806F937F938F939F93AF93BF93EF93FF9341
S1131B908091BA1C9091BB1C009739F0DC01ED9147
S1131BA0FC910480F581E02D1995FF91EF91BF918F
S1131BB0AF919F918F917F916F915F914F913F91E1
S1131BC02F910F900BBE0F900FBE0F901F90189582
S1131BD01F920F920FB60F9211240BB60F922F93F0
S1131BE03F934F935F936F937F938F939F93AF93A1
S1131BF0BF93EF93FF938091BA1C9091BB1C009705
S1131C0039F0DC01ED91FC910680F781E02D199506
S1131C10FF91EF91BF91AF919F918F917F916F91C0
S1131C205F914F913F912F910F900BBE0F900FBE7C
S1131C300F901F9018951F920F920FB60F921124B8
S1131C400BB60F922F933F934F935F936F937F93B2
S1131C508F939F93AF93BF93EF93FF938091BA1C9D
S1131C609091BB1C009739F0DC01ED91FC9100844C
S1131C70F185E02D1995FF91EF91BF91AF919F915F
S1131C808F917F916F915F914F913F912F910F9021
S1131C900BBE0F900FBE0F901F9018959F92AF929E
S1131CA0BF92CF92DF92EF92FF920F931F93CF9345
S1131CB0DF93EC01962E5A01690183E792E0998340
S1131CC08883862F00D39B838A83E92DF0E0EE0F6F
S1131CD0FF1FE955FD4F8081918101969D838C837F
S1131CE08DE992E09983888381E0981226C0D0938D
S1131CF0B31CC093B21CA114B10429F0EFE6F0E0C8
S1131D00808182608083C114D10429F0EFE6F0E081
S1131D108081846080830115110529F0EFE6F0E0ED
S1131D20808188608083E114F10409F47EC0EFE6C9
S1131D30F0E080818160808378C083E0981226C0BF
S1131D40D093B71CC093B61CA114B10429F0E1E7E9
S1131D50F0E0808182608083C114D10429F0E1E73E
S1131D60F0E08081846080830115110529F0E1E7AA
S1131D70F0E0808188608083E114F10409F455C0A7
S1131D80E1E7F0E08081816080834FC084E09812B5
S1131D9025C0D093B91CC093B81CA114B10429F078
S1131DA0E2E7F0E0808182608083C114D10429F0ED
S1131DB0E2E7F0E08081846080830115110529F059
S1131DC0E2E7F0E0808188608083E114F10469F146
S1131DD0E2E7F0E080818160808327C085E098128B
S1131DE02EC0D093BB1CC093BA1CA114B10429F01B
S1131DF0E3E7F0E0808182608083C114D10429F09C
S1131E00E3E7F0E08081846080830115110529F007
S1131E10E3E7F0E0808188608083E114F10429F035
S1131E20E3E7F0E0808181608083B986A886DB8661
S1131E30CA861D870C87FF86EE861E821F82DF916D
S1131E40CF911F910F91FF90EF90DF90CF90BF90B3
S1131E50AF909F900895EF92FF920F931F93CF93AB
S1131E60DF93FC01FFB6F894A481B5818C91887F3F
S1131E708C93A481B5818C9185608C93A62FB72F08
S1131E80A23181E1B80710F0A1E1B1E18FE08A9FAE
S1131E90E0018B9FD00D1124642F752F623181E1F5
S1131EA0780710F061E171E18FE0869FD001879F90
S1131EB0B00D1124422F532F423181E1580710F005
S1131EC041E151E18FE0849FB001859F700D1124A1
S1131ED0202F312F223181E1380710F021E131E147
S1131EE08FE0829FA001839F500D1124518B408B62
S1131EF0828193812091A9023091AA0282179307CB
S1131F0089F4D0938900C0938800B0938B00A09388
S1131F108A0070938D0060938C00509385004093E9
S1131F20840040C02091AD023091AE028217930725
S1131F3089F4D0939900C0939800B0939B00A09328
S1131F409A0070939D0060939C0050939500409379
S1131F50940028C02091AF023091B00282179307F9
S1131F6089F4D093A900C093A800B093AB00A093C8
S1131F70AA007093AD006093AC005093A500409309
S1131F80A40010C0D0932901C0932801B0932B0161
S1131F90A0932A0170932D0160932C015093250185
S1131FA040932401E68281E08783FFBEDF91CF91D5
S1131FB01F910F91FF90EF900895BF92CF92DF92FF
S1131FC0EF92FF920F931F93CF93DF93EC01B62E02
S1131FD06A01790183E792E099838883862F73D11C
S1131FE09B838A83EB2DF0E0EE0FFF1FE955FD4F35
S1131FF08081918101969D838C8381E892E099830D
S11320008883B1101DC0D093B11CC093B01CC114FF
S1132010D10429F0EEE6F0E0808182608083E1144F
S1132020F10429F0EEE6F0E08081846080830115FC
S1132030110529F1EEE6F0E08081816080831FC004
S113204082E0B81226C0D093B51CC093B41CC1144E
S1132050D10429F0E0E7F0E0808182608083E1141C
S1132060F10429F0E0E7F0E08081846080830115C9
S1132070110529F0E0E7F0E0808181608083D98652
S1132080C886FB86EA861D861C861F870E871E82ED
S11320901F82DF91CF911F910F91FF90EF90DF90FE
S11320A0CF90BF900895EF92FF920F931F93CF9319
S11320B07C01C62F00E010E020E030E040E050E07A
S11320C07CDF8FE892E0F70191838083C11104C023
S11320D081E080936E0005C0C23019F481E08093E2
S11320E07000CF911F910F91FF90EF900895DC0144
S11320F02FB7F89483B7817F83BF12964D915C917B
S113210013978091A7029091A8024817590721F4C8
S113211086B59FEF96BD05C0E2EBF0E080819FEFAE
S113212090831496ED91FC91159791E090832FBFC5
S113213093B7916093BF889593B79E7F93BF509652
S11321409C91891B0895FC014FB7F894A481B58133
S11321508C91887F8C93862F972F8231910510F074
S113216081E190E0982F990F890F982F990F990F7B
S1132170890F8095808B228133818091A702909171
S1132180A8022817390741F4A481B5818C91856090
S11321908C93808986BD08C0A481B5818C918760A9
S11321A08C9380898093B2008FEF868381E087834C
S11321B04FBF0895FC019FB7F894A481B5818C9119
S11321C0887F8C93168217829FBF0895FC018681B5
S11321D08230B8F18F3F11F08150868382819381E0
S11321E02091A9023091AA028217930739F48089B9
S11321F09189909385008093840008952091AD0285
S11322003091AE028217930739F4808991899093B3
S113221095008093940008952091AF023091B0020C
S11322208217930739F4808991899093A50080934C
S1132230A4000895808991899093250180932401B5
S11322400895CF01B7CF0895FC0186818230A0F0B4
S11322508F3F11F081508683228133818091A702C0
S11322609091A8022817390719F4808986BD08952A
S113227080898093B2000895CF019CCF0895282FC0
S113228030E041E050E0BA0102C0660F771F8A9542
S1132290E2F7CB014091BD1C5091BE1C6423752311
S11322A0672B71F4842B952B9093BE1C8093BD1CDB
S11322B0220F331FF901ED54FD4F80819181089560
S11322C080E090E008956091BC1C282F30E0462FF8
S11322D050E0082E02C0559547950A94E2F740FD58
S11322E014C041E050E0FA0102C0EE0FFF1F8A95CE
S11322F0E2F7CF01862B8093BC1C220F331FF90118
S1132300E955FD4F80819181089580E090E0089522
S1132310EE0FFF1F881F8BBF0790F691E02D1994D5
S1072320F894FFCF5B
S1132324344175666761626500334175666761624D
S1132334650032417566676162650031417566679F
S113234461626500FFFFFFFFFFFFFFFFFF00000066
S113235400C503011400000000011800000000017E
S11323642800000000021000400000021400400095
S1132374000218004000000228004000000410007D
S11323844010500414004010500428004000400041
S1132394000000510A510A510A510A510A0000006E
S11323A40024119809AE09C409C50900000000D726
S11323B4099809AE09C409C50900000000E610FD26
S11323C409130A290A3F0A44008000B0009000A0BF
S11323D400200120002300260029002C002F0032B5
S10D23E400000103010601090100D5
S9030000FC
